:020000020000FC
:1000000003C010C0189513C011E111BB18E117BB54
:1000100010E41BBF15B7136015BF1BE018B98FEFB5
:10002000789470C0909880FD909A869518959098D5
:1000300040FD909A842F8695189522273327C49ADD
:10004000C39AF9D0C498C398F6D0B2993160C39AD4
:10005000F2D0C398F0D0B2993260C39AECD0C39872
:10006000EAD0B2993460C39AE6D0C398E4D0B2998A
:100070003860C39AE0D0C398DED0B2993061C39A99
:10008000DAD0C398D8D0B2993062C39AD4D0C3988A
:10009000D2D0B2993064C39ACED0C398CCD0B299A2
:1000A0003068C39AC8D0C398C6D0B2992160C39AA9
:1000B000C2D0C398C0D0B2992260C39ABCD0C398B2
:1000C000BAD0B2992460C39AB6D0C398B4D0B299CA
:1000D0002860C39AB0D0C398AED0B2992061C39AB9
:1000E000AAD0C398A8D0B2992062C39AA4D0C398CA
:1000F000A2D0B2992064C39A9ED0C3989CD0B299E2
:10010000206808959ADF432F4C7F20FD416030FD29
:100110004260452723FF0DD022FF4E7F6395552770
:1001200021FD01C0516031FD01C0526067FD5527BE
:10013000E9CF4FEE84D04FEF82D04FEE80D04FEF1B
:100140007ED04FED7CD04FEF7AD04FED78D04FEF8F
:1001500076D04FEB74D04FEF72D04FE770D04FEFA7
:100160006ED04FEB6CD04FEF6AD04FE768D04FEFB7
:1001700066D04DEF64D04FEF62D04EEF60D04FEFBE
:10018000089511278599FECF47D04BD085991160EE
:1001900048D08599126045D08599146042D08599E0
:1001A00018603FD0859910613CD08599106239D094
:1001B0008599106436D0859910682ED0089594984A
:1001C00030D010FD949A10FF949830D011FD949A7D
:1001D00011FF94982BD012FD949A12FF949826D078
:1001E00013FD949A13FF949821D014FD949A14FF50
:1001F00094981CD015FD949A15FF949817D016FD6D
:10020000949A16FF949812D017FD949A17FF949819
:100210000DD0949A06D0089503E300000A95E9F7FB
:10022000089506E600000A95E9F7089505E600003E
:100230000A95E9F7089504E10A95F1F708950FEF9B
:0E02400070EF0A95F1F70FEF7A95D9F7089550
:00000001FF
