:020000020000FC
:1000000003C010C0189513C011E111BB18E117BB54
:1000100010E41BBF15B7136015BF1BE018B98FEFB5
:10002000789470C0909880FD909A869518959098D5
:1000300040FD909A842F8695189522273327C49ADD
:10004000C39AFAD0C498C398F7D0B2993160C39AD2
:10005000F3D0C398F1D0B2993260C39AEDD0C3986F
:10006000EBD0B2993460C39AE7D0C398E5D0B29987
:100070003860C39AE1D0C398DFD0B2993061C39A97
:10008000DBD0C398D9D0B2993062C39AD5D0C39887
:10009000D3D0B2993064C39ACFD0C398CDD0B2999F
:1000A0003068C39AC9D0C398C7D0B2992160C39AA7
:1000B000C3D0C398C1D0B2992260C39ABDD0C398AF
:1000C000BBD0B2992460C39AB7D0C398B5D0B299C7
:1000D0002860C39AB1D0C398AFD0B2992061C39AB7
:1000E000ABD0C398A9D0B2992062C39AA5D0C398C7
:1000F000A3D0B2992064C39A9FD0C3989DD0B299DF
:10010000206808959ADF932F9C7F20FD916030FD39
:100110009260952723FF0ED022FF9E7F639555277F
:1001200021FD01C0516031FD01C0526067FD5527BE
:10013000492FE8CF4FEE84D04FEF82D04FEE80D0E2
:100140004FEF7ED04FED7CD04FEF7AD04FED78D08F
:100150004FEF76D04FEB74D04FEF72D04FE770D0A7
:100160004FEF6ED04FEB6CD04FEF6AD04FE768D0B7
:100170004FEF66D04DEF64D04FEF62D04EEF60D0BE
:100180004FEF089511278599FECF47D04BD0859921
:10019000116048D08599126045D08599146042D08D
:1001A000859918603FD0859910613CD0859910627F
:1001B00039D08599106436D0859910682ED008956D
:1001C000949830D010FD949A10FF949830D011FD7F
:1001D000949A11FF94982BD012FD949A12FF949840
:1001E00026D013FD949A13FF949821D014FD949A6D
:1001F00014FF94981CD015FD949A15FF949817D06D
:1002000016FD949A16FF949812D017FD949A17FF32
:1002100094980DD0949A06D0089503E300000A95AF
:10022000E9F7089506E600000A95E9F7089505E65E
:1002300000000A95E9F7089504E10A95F1F7089599
:100240000FEF70EF0A95F1F70FEF7A95D9F7089550
:00000001FF
